{
  "_format": "hh-sol-artifact-1",
  "contractName": "Safe",
  "sourceName": "contracts/safe.sol",
  "abi": [
    {
      "inputs": [],
      "stateMutability": "nonpayable",
      "type": "constructor"
    },
    {
      "inputs": [
        {
          "internalType": "address",
          "name": "_owner",
          "type": "address"
        }
      ],
      "name": "changeOwner",
      "outputs": [],
      "stateMutability": "nonpayable",
      "type": "function"
    },
    {
      "inputs": [],
      "name": "opensafe",
      "outputs": [
        {
          "internalType": "string",
          "name": "",
          "type": "string"
        }
      ],
      "stateMutability": "view",
      "type": "function"
    },
    {
      "inputs": [],
      "name": "owner",
      "outputs": [
        {
          "internalType": "address",
          "name": "",
          "type": "address"
        }
      ],
      "stateMutability": "view",
      "type": "function"
    }
  ],
  "bytecode": "0x60806040526040518060400160405280601381526020017f62697363323032337b46414b455f464c41477d00000000000000000000000000815250600190816200004a919062000319565b503480156200005857600080fd5b50336000806101000a81548173ffffffffffffffffffffffffffffffffffffffff021916908373ffffffffffffffffffffffffffffffffffffffff16021790555062000400565b600081519050919050565b7f4e487b7100000000000000000000000000000000000000000000000000000000600052604160045260246000fd5b7f4e487b7100000000000000000000000000000000000000000000000000000000600052602260045260246000fd5b600060028204905060018216806200012157607f821691505b602082108103620001375762000136620000d9565b5b50919050565b60008190508160005260206000209050919050565b60006020601f8301049050919050565b600082821b905092915050565b600060088302620001a17fffffffffffffffffffffffffffffffffffffffffffffffffffffffffffffffff8262000162565b620001ad868362000162565b95508019841693508086168417925050509392505050565b6000819050919050565b6000819050919050565b6000620001fa620001f4620001ee84620001c5565b620001cf565b620001c5565b9050919050565b6000819050919050565b6200021683620001d9565b6200022e620002258262000201565b8484546200016f565b825550505050565b600090565b6200024562000236565b620002528184846200020b565b505050565b5b818110156200027a576200026e6000826200023b565b60018101905062000258565b5050565b601f821115620002c95762000293816200013d565b6200029e8462000152565b81016020851015620002ae578190505b620002c6620002bd8562000152565b83018262000257565b50505b505050565b600082821c905092915050565b6000620002ee60001984600802620002ce565b1980831691505092915050565b6000620003098383620002db565b9150826002028217905092915050565b62000324826200009f565b67ffffffffffffffff81111562000340576200033f620000aa565b5b6200034c825462000108565b620003598282856200027e565b600060209050601f8311600181146200039157600084156200037c578287015190505b620003888582620002fb565b865550620003f8565b601f198416620003a1866200013d565b60005b82811015620003cb57848901518255600182019150602085019450602081019050620003a4565b86831015620003eb5784890151620003e7601f891682620002db565b8355505b6001600288020188555050505b505050505050565b61052480620004106000396000f3fe608060405234801561001057600080fd5b50600436106100415760003560e01c80638da5cb5b14610046578063a6f9dae114610064578063b9f8f35b14610080575b600080fd5b61004e61009e565b60405161005b91906102f7565b60405180910390f35b61007e60048036038101906100799190610343565b6100c2565b005b610088610193565b6040516100959190610400565b60405180910390f35b60008054906101000a900473ffffffffffffffffffffffffffffffffffffffff1681565b3373ffffffffffffffffffffffffffffffffffffffff1660008054906101000a900473ffffffffffffffffffffffffffffffffffffffff1673ffffffffffffffffffffffffffffffffffffffff1614610150576040517f08c379a00000000000000000000000000000000000000000000000000000000081526004016101479061046e565b60405180910390fd5b806000806101000a81548173ffffffffffffffffffffffffffffffffffffffff021916908373ffffffffffffffffffffffffffffffffffffffff16021790555050565b60603373ffffffffffffffffffffffffffffffffffffffff1660008054906101000a900473ffffffffffffffffffffffffffffffffffffffff1673ffffffffffffffffffffffffffffffffffffffff160361027a57600180546101f5906104bd565b80601f0160208091040260200160405190810160405280929190818152602001828054610221906104bd565b801561026e5780601f106102435761010080835404028352916020019161026e565b820191906000526020600020905b81548152906001019060200180831161025157829003601f168201915b505050505090506102b3565b6040518060400160405280601081526020017f596f7572206e6f74206f776e657221210000000000000000000000000000000081525090505b90565b600073ffffffffffffffffffffffffffffffffffffffff82169050919050565b60006102e1826102b6565b9050919050565b6102f1816102d6565b82525050565b600060208201905061030c60008301846102e8565b92915050565b600080fd5b610320816102d6565b811461032b57600080fd5b50565b60008135905061033d81610317565b92915050565b60006020828403121561035957610358610312565b5b60006103678482850161032e565b91505092915050565b600081519050919050565b600082825260208201905092915050565b60005b838110156103aa57808201518184015260208101905061038f565b60008484015250505050565b6000601f19601f8301169050919050565b60006103d282610370565b6103dc818561037b565b93506103ec81856020860161038c565b6103f5816103b6565b840191505092915050565b6000602082019050818103600083015261041a81846103c7565b905092915050565b7f596f7572206e6f74206f776e6572212100000000000000000000000000000000600082015250565b600061045860108361037b565b915061046382610422565b602082019050919050565b600060208201905081810360008301526104878161044b565b9050919050565b7f4e487b7100000000000000000000000000000000000000000000000000000000600052602260045260246000fd5b600060028204905060018216806104d557607f821691505b6020821081036104e8576104e761048e565b5b5091905056fea26469706673582212205e0a75c9b58b4756ac23fc93778c6e04f34412321ae659a5fd21b02730e5fc0b64736f6c63430008180033",
  "linkReferences": {},
  "deployedLinkReferences": {}
}